:100000000C942A000C9447000C9447000C94470071
:100010000C9447000C9447000C9447000C94470044
:100020000C9447000C9447000C9447000C94470034
:100030000C9447000C94E1020C9447000C94470088
:100040000C9447000C9447000C9447000C94470014
:100050000C94470011241FBECFE5D8E0DEBFCDBF12
:1000600010E0A0E6B0E0E4EEFAE002C005900D92E8
:10007000AE38B107D9F720E0AEE8B0E001C01D927C
:10008000A439B207E1F70E946F020C9470050C943A
:100090000000823419F118F4813439F00895833462
:1000A000B1F1843409F44CC00895413059F42AB3B5
:1000B00081E090E002C0880F991F6A95E2F7822BD9
:1000C0008ABB08952AB381E090E002C0880F991F8F
:1000D0006A95E2F7809582238ABB0895413059F4EE
:1000E00027B381E090E002C0880F991F6A95E2F77C
:1000F000822B87BB089527B381E090E002C0880F70
:10010000991F6A95E2F78095822387BB0895413055
:1001100059F424B381E090E002C0880F991F6A95DA
:10012000E2F7822B84BB089524B381E090E002C003
:10013000880F991F6A95E2F78095822384BB089502
:10014000413059F421B381E090E002C0880F991F3B
:100150006A95E2F7822B81BB089521B381E090E09C
:1001600002C0880F991F6A95E2F78095822381BBB0
:100170000895823419F118F4813439F008958334E4
:10018000B1F1843409F44CC00895413059F42BB3D3
:1001900081E090E002C0880F991F6A95E2F7822BF8
:1001A0008BBB08952BB381E090E002C0880F991FAC
:1001B0006A95E2F7809582238BBB0895413059F40C
:1001C00028B381E090E002C0880F991F6A95E2F79A
:1001D000822B88BB089528B381E090E002C0880F8D
:1001E000991F6A95E2F78095822388BB0895413074
:1001F00059F425B381E090E002C0880F991F6A95F9
:10020000E2F7822B85BB089525B381E090E002C020
:10021000880F991F6A95E2F78095822385BB089520
:10022000413059F422B381E090E002C0880F991F59
:100230006A95E2F7822B82BB089522B381E090E0B9
:1002400002C0880F991F6A95E2F78095822382BBCE
:1002500008958234D9F018F4813431F04DC08334DC
:1002600039F18434B9F148C029B381E090E0062E19
:1002700002C0880F991F0A94E2F730E0822393238B
:1002800002C0959587956A95E2F7089526B381E0B7
:1002900090E0062E02C0880F991F0A94E2F730E022
:1002A0008223932302C0959587956A95E2F7089576
:1002B00023B381E090E0062E02C0880F991F0A94B4
:1002C000E2F730E08223932302C0959587956A95E3
:1002D000E2F7089520B381E090E0062E02C0880F77
:1002E000991F0A94E2F730E08223932302C0959588
:1002F00087956A95E2F7089580E00895823459F071
:1003000018F4813431F00895833439F0843439F0AD
:1003100008956BBB089568BB089565BB089562BBE3
:100320000895CF93DF93CDB7DEB72A970FB6F89431
:10033000DEBF0FBECDBF9AE0E1E6F0E0DE01119630
:1003400001900D929A95E1F7AE9A9DEC899F912DBF
:100350001124969596959695392F330F232F220FBA
:10036000220F230F821BE1E0F0E0EC0FFD1FE80FEE
:10037000F11D8081880F8BBBAF98E9EFF0E03197DA
:10038000F1F700C00000AF9AE1E0F0E0EC0FFD1FD4
:10039000E90FF11D8081880F8BBBAE9889EF90E04B
:1003A0000197F1F700C000002A960FB6F894DEBF5F
:1003B0000FBECDBFDF91CF910895CF93DF936FEE46
:1003C0007FEF8FE79FE30E941A042FE986E891E010
:1003D000215080409040E1F700C0000068EF7FEFBF
:1003E0008FEB9FE30E941A0480918E008F5F8093B1
:1003F0008E0093E6981B909360006BE081E00E9472
:10040000DC0380918E00805D0E94BB03D091600070
:1004100080E40E945D04CDECDC9FC12D1124C695C3
:10042000C695C69580E38C0F0E945D04CC0F8C2F7F
:10043000880F880FC80F8D2F8C1B805D0E945D0474
:1004400081E20E945D04DF91CF910895CF93DF9305
:100450006FEE7FEF8FE79FE30E94FB032FE986E8B3
:1004600091E0215080409040E1F700C0000068EF2B
:100470007FEF8FEB9FE30E94FB0380918E00815002
:1004800080938E0093E6981B909360006BE081E070
:100490000E94DC0380918E00805D0E94BB03D0919E
:1004A000600080E40E945D04CDECDC9FC12D11242E
:1004B000C695C695C69580E38C0F0E945D04CC0F4F
:1004C0008C2F880F880FC80F8D2F8C1B805D0E948A
:1004D0005D0481E20E945D04DF91CF9108958FEF6A
:1004E0008ABB0E94540360E679E080E090E00E94BD
:1004F00039047894A69AA79AA09AA19A8BE690E0DC
:100500000E94CD0361E082E00E94DC038CE790E072
:100510000E94CD03D091600080E40E945D04CDEC88
:10052000DC9FC12D1124C695C695C69580E38C0F1E
:100530000E945D04CC0F8C2F880F880FC80F8D2F61
:100540008C1B805D0E945D0481E20E945D04C1E01D
:1005500066E084E40E94290180939300813071F465
:100560008091900081110EC080918E00833650F4EE
:1005700089E60E945D04C093900004C0811102C00E
:100580001092900067E084E40E9429018093920019
:10059000813071F480918F0081110EC080918E00A6
:1005A000882351F08FE60E945D04C0938F0004C041
:1005B000811102C010928F00809160000E94910111
:1005C000C7CF1F920F920FB60F9211242F933F9314
:1005D0004F935F936F937F938F939F93AF93BF934B
:1005E000EF93FF938CB180939100813319F40E94B3
:1005F000DD0120C0823319F40E9426021BC0833320
:1006000061F4A99A2FE78AE196E02150804090405A
:10061000E1F700C00000A9980DC0843359F4A89AEE
:100620002FE78AE196E0215080409040E1F700C03A
:100630000000A898FF91EF91BF91AF919F918F918A
:100640007F916F915F914F913F912F910F900FBECE
:100650000F901F90189541E062E083E40E94B9007A
:1006600083EF91E00197F1F700C0000040E062E005
:1006700083E40E94B90083EF91E00197F1F700C095
:1006800000000895682F82E40E947E0140E063E04C
:1006900083E40E94B9000E942B0389EF90E0019748
:1006A000F1F700C0000008958FE493EC0197F1F793
:1006B00000C0000041E060E082E40E94490041E0A7
:1006C00061E082E40E94490041E062E082E40E942D
:1006D000490041E063E082E40E94490041E064E0B7
:1006E00082E40E94490041E065E082E40E94490002
:1006F00041E066E082E40E94490041E067E082E474
:100700000E94490041E062E083E40E94490041E028
:1007100064E083E40E94490041E063E083E40E94D6
:10072000490040E064E083E40E94B90088E30E944D
:10073000420389EF90E00197F1F700C000008EE0DE
:100740000E94420389EF90E00197F1F700C000009A
:1007500081E00E94420383EC99E00197F1F700C029
:10076000000086E00E94420389EF90E00197F1F7D4
:1007700000C000000895682F82E40E947E0141E0DD
:1007800063E083E40E94B9000E942B0389EF90E0AC
:100790000197F1F700C000000895CF93DF93EC01BB
:1007A0008881882331F021960E94BB0389918111B1
:1007B000FBCFDF91CF9108959FEF980F923070F4A7
:1007C0009FEF960F903160F4813019F42FE7260FD8
:1007D00008C0823031F42FEB260F03C020E801C09F
:1007E00020E8822F0E94420389EF90E00197F1F701
:1007F00000C0000008958D9A2FB522602FBD2EB540
:1008000028602EBD2EB520612EBD20E030E04AE7E5
:1008100054E40E94B9040E9461047BBD6ABD8FE16B
:100820009EE497BD86BD8EB581608EBD8FB5806814
:100830008FBD08958C9A2FB522602FBD2EB52860EC
:100840002EBD2EB520612EBD20E030E04AE754E4F5
:100850000E94B9040E94610479BD68BD8FE19EE4E5
:1008600097BD86BD8EB581608EBD8FB580628FBD10
:100870000895DC01CB01880F991FAA1FBB1F880FA9
:10088000991FAA1FBB1F9C01AD01220F331F441FDC
:10089000551F220F331F441F551F60E472E48FE081
:1008A00090E00E944E052150310930BD29B9539A7C
:1008B000549A579A86E880BD08955D9BFECF8CB907
:1008C00008950E94980488F09F5798F0B92F9927AF
:1008D000B751B0F0E1F0660F771F881F991F1AF02B
:1008E000BA95C9F714C0B13091F00E94B204B1E0DA
:1008F00008950C94B204672F782F8827B85F39F0D9
:10090000B93FCCF3869577956795B395D9F73EF4C3
:1009100090958095709561957F4F8F4F9F4F08956B
:1009200057FD9058440F551F59F05F3F71F04795A0
:10093000880F97FB991F61F09F3F79F08795089585
:10094000121613061406551FF2CF4695F1DF08C0A4
:10095000161617061806991FF1CF869571056105C1
:1009600008940895E894BB2766277727CB0197F969
:1009700008950E94CC040C943D050E942F0538F088
:100980000E94360520F0952311F00C9426050C9456
:100990002C0511240C94B3040E94900470F3959FCD
:1009A000C1F3950F50E0551F629FF001729FBB2766
:1009B000F00DB11D639FAA27F00DB11DAA1F649F02
:1009C0006627B00DA11D661F829F2227B00DA11DB5
:1009D000621F739FB00DA11D621F839FA00D611D3B
:1009E000221F749F3327A00D611D231F849F600D5C
:1009F000211D822F762F6A2F11249F5750409AF085
:100A0000F1F088234AF0EE0FFF1FBB1F661F771F10
:100A1000881F91505040A9F79E3F510580F00C94DB
:100A200026050C94B3045F3FE4F3983ED4F3869517
:100A300077956795B795F795E7959F5FC1F7FE2B7B
:100A4000880F911D9695879597F9089597F99F6757
:100A500080E870E060E008959FEF80EC0895002446
:100A60000A941616170618060906089500240A9413
:100A700012161306140605060895092E0394000C99
:100A800011F4882352F0BB0F40F4BF2B11F460FF28
:100A900004C06F5F7F4F8F4F9F4F0895A1E21A2EC2
:100AA000AA1BBB1BFD010DC0AA1FBB1FEE1FFF1F12
:100AB000A217B307E407F50720F0A21BB30BE40B62
:100AC000F50B661F771F881F991F1A9469F76095A9
:100AD0007095809590959B01AC01BD01CF01089563
:040AE000F894FFCFB8
:100AE400633F065B4F666D7D077F6F746865726553
:100AF40020617265203020636172730067617261E6
:0E0B040067652068617320737061636500008F
:00000001FF
